{
  "contractName": "Edublocks",
  "abi": [
    {
      "inputs": [
        {
          "internalType": "string",
          "name": "n",
          "type": "string"
        },
        {
          "internalType": "string",
          "name": "pass",
          "type": "string"
        }
      ],
      "name": "addStudent",
      "outputs": [],
      "stateMutability": "nonpayable",
      "type": "function"
    },
    {
      "inputs": [
        {
          "internalType": "string",
          "name": "n",
          "type": "string"
        },
        {
          "internalType": "string",
          "name": "pass",
          "type": "string"
        }
      ],
      "name": "addEducator",
      "outputs": [],
      "stateMutability": "nonpayable",
      "type": "function"
    },
    {
      "inputs": [
        {
          "internalType": "string",
          "name": "n",
          "type": "string"
        },
        {
          "internalType": "string",
          "name": "p",
          "type": "string"
        }
      ],
      "name": "studentLogin",
      "outputs": [
        {
          "internalType": "int256",
          "name": "",
          "type": "int256"
        },
        {
          "internalType": "bool",
          "name": "",
          "type": "bool"
        }
      ],
      "stateMutability": "view",
      "type": "function"
    },
    {
      "inputs": [
        {
          "internalType": "string",
          "name": "n",
          "type": "string"
        },
        {
          "internalType": "string",
          "name": "p",
          "type": "string"
        }
      ],
      "name": "educatorLogin",
      "outputs": [
        {
          "internalType": "int256",
          "name": "",
          "type": "int256"
        },
        {
          "internalType": "bool",
          "name": "",
          "type": "bool"
        }
      ],
      "stateMutability": "view",
      "type": "function"
    },
    {
      "inputs": [
        {
          "internalType": "string",
          "name": "n",
          "type": "string"
        },
        {
          "internalType": "string",
          "name": "desc",
          "type": "string"
        },
        {
          "internalType": "string",
          "name": "auth",
          "type": "string"
        },
        {
          "internalType": "int256",
          "name": "p",
          "type": "int256"
        },
        {
          "internalType": "int256",
          "name": "d",
          "type": "int256"
        },
        {
          "internalType": "int256",
          "name": "e_id",
          "type": "int256"
        }
      ],
      "name": "addCourse",
      "outputs": [],
      "stateMutability": "nonpayable",
      "type": "function"
    },
    {
      "inputs": [
        {
          "internalType": "int256",
          "name": "s_id",
          "type": "int256"
        },
        {
          "internalType": "int256",
          "name": "c_id",
          "type": "int256"
        },
        {
          "internalType": "int256",
          "name": "_time",
          "type": "int256"
        },
        {
          "internalType": "int256",
          "name": "e_id",
          "type": "int256"
        }
      ],
      "name": "buyCourse",
      "outputs": [],
      "stateMutability": "nonpayable",
      "type": "function"
    },
    {
      "inputs": [
        {
          "internalType": "int256",
          "name": "s_id",
          "type": "int256"
        },
        {
          "internalType": "int256",
          "name": "c_id",
          "type": "int256"
        },
        {
          "internalType": "int256",
          "name": "_m",
          "type": "int256"
        }
      ],
      "name": "reviewAssignment",
      "outputs": [],
      "stateMutability": "nonpayable",
      "type": "function"
    },
    {
      "inputs": [
        {
          "internalType": "int256",
          "name": "s_id",
          "type": "int256"
        },
        {
          "internalType": "int256",
          "name": "c_id",
          "type": "int256"
        },
        {
          "internalType": "int256",
          "name": "_time",
          "type": "int256"
        }
      ],
      "name": "submitAssignment",
      "outputs": [
        {
          "internalType": "bool",
          "name": "",
          "type": "bool"
        }
      ],
      "stateMutability": "nonpayable",
      "type": "function"
    },
    {
      "inputs": [
        {
          "internalType": "int256",
          "name": "_id",
          "type": "int256"
        }
      ],
      "name": "getCourse",
      "outputs": [
        {
          "components": [
            {
              "internalType": "int256",
              "name": "id",
              "type": "int256"
            },
            {
              "internalType": "string",
              "name": "name",
              "type": "string"
            },
            {
              "internalType": "string",
              "name": "description",
              "type": "string"
            },
            {
              "internalType": "string",
              "name": "author_name",
              "type": "string"
            },
            {
              "internalType": "int256",
              "name": "author_id",
              "type": "int256"
            },
            {
              "internalType": "int256",
              "name": "price",
              "type": "int256"
            },
            {
              "internalType": "int256",
              "name": "users",
              "type": "int256"
            },
            {
              "internalType": "int256",
              "name": "deadline",
              "type": "int256"
            }
          ],
          "internalType": "struct Edublocks.Course",
          "name": "",
          "type": "tuple"
        }
      ],
      "stateMutability": "view",
      "type": "function"
    },
    {
      "inputs": [
        {
          "internalType": "int256",
          "name": "_id",
          "type": "int256"
        }
      ],
      "name": "getStudent",
      "outputs": [
        {
          "components": [
            {
              "internalType": "int256",
              "name": "id",
              "type": "int256"
            },
            {
              "internalType": "string",
              "name": "user_name",
              "type": "string"
            },
            {
              "internalType": "string",
              "name": "password",
              "type": "string"
            },
            {
              "internalType": "int256",
              "name": "balance",
              "type": "int256"
            },
            {
              "internalType": "int256[]",
              "name": "courses_id",
              "type": "int256[]"
            },
            {
              "internalType": "int256[]",
              "name": "courses_deadline",
              "type": "int256[]"
            },
            {
              "internalType": "int256[]",
              "name": "marks",
              "type": "int256[]"
            }
          ],
          "internalType": "struct Edublocks.Student",
          "name": "",
          "type": "tuple"
        }
      ],
      "stateMutability": "view",
      "type": "function"
    },
    {
      "inputs": [
        {
          "internalType": "int256",
          "name": "_id",
          "type": "int256"
        }
      ],
      "name": "getEducator",
      "outputs": [
        {
          "components": [
            {
              "internalType": "int256",
              "name": "id",
              "type": "int256"
            },
            {
              "internalType": "string",
              "name": "user_name",
              "type": "string"
            },
            {
              "internalType": "string",
              "name": "password",
              "type": "string"
            },
            {
              "internalType": "int256",
              "name": "balance",
              "type": "int256"
            },
            {
              "internalType": "int256[]",
              "name": "courses_id",
              "type": "int256[]"
            }
          ],
          "internalType": "struct Edublocks.Educator",
          "name": "",
          "type": "tuple"
        }
      ],
      "stateMutability": "view",
      "type": "function"
    },
    {
      "inputs": [],
      "name": "getCourseCount",
      "outputs": [
        {
          "internalType": "int256",
          "name": "",
          "type": "int256"
        }
      ],
      "stateMutability": "view",
      "type": "function"
    }
  ],
  "bytecode": "0x608060405234801561001057600080fd5b50612984806100206000396000f3fe608060405234801561001057600080fd5b50600436106100b45760003560e01c8063c419f65b11610071578063c419f65b1461018c578063c839e9b5146101bd578063ce54417d146101ed578063d34b78981461021d578063e27bb1f71461024d578063e812eaa414610269576100b4565b80630fc70461146100b9578063163072e8146100d55780631b1fc4b6146100f15780638b24119b1461010d5780638db09d521461013d57806396cfda061461016e575b600080fd5b6100d360048036038101906100ce9190611959565b610285565b005b6100ef60048036038101906100ea9190611a07565b610467565b005b61010b60048036038101906101069190611ae8565b610666565b005b61012760048036038101906101229190611ae8565b61089e565b6040516101349190611b56565b60405180910390f35b61015760048036038101906101529190611959565b610a6c565b604051610165929190611b80565b60405180910390f35b610176610c2d565b6040516101839190611ba9565b60405180910390f35b6101a660048036038101906101a19190611959565b610c37565b6040516101b4929190611b80565b60405180910390f35b6101d760048036038101906101d29190611bc4565b610d6b565b6040516101e49190611d3d565b60405180910390f35b61020760048036038101906102029190611bc4565b610f81565b6040516102149190611ec6565b60405180910390f35b61023760048036038101906102329190611bc4565b6111ee565b6040516102449190611f6c565b60405180910390f35b61026760048036038101906102629190611959565b6113ab565b005b610283600480360381019061027e9190611f8e565b611530565b005b600660003373ffffffffffffffffffffffffffffffffffffffff1673ffffffffffffffffffffffffffffffffffffffff16815260200190815260200160002060009054906101000a900460ff1615610312576040517f08c379a000000000000000000000000000000000000000000000000000000000815260040161030990612052565b60405180910390fd5b60016000815480929190610325906120a1565b91905055506001546004600060015481526020019081526020016000206000018190555081600460006001548152602001908152602001600020600101908161036e91906122ff565b5080600460006001548152602001908152602001600020600201908161039491906122ff565b506000600460006001548152602001908152602001600020600301819055506001600660003373ffffffffffffffffffffffffffffffffffffffff1673ffffffffffffffffffffffffffffffffffffffff16815260200190815260200160002060006101000a81548160ff0219169083151502179055506001600760003373ffffffffffffffffffffffffffffffffffffffff1673ffffffffffffffffffffffffffffffffffffffff16815260200190815260200160002060006101000a81548160ff0219169083151502179055505050565b600760003373ffffffffffffffffffffffffffffffffffffffff1673ffffffffffffffffffffffffffffffffffffffff16815260200190815260200160002060009054906101000a900460ff166104f3576040517f08c379a00000000000000000000000000000000000000000000000000000000081526004016104ea9061241d565b60405180910390fd5b60026000815480929190610506906120a1565b91905055506002546005600060025481526020019081526020016000206000018190555085600560006002548152602001908152602001600020600101908161054f91906122ff565b5084600560006002548152602001908152602001600020600201908161057591906122ff565b5083600560006002548152602001908152602001600020600301908161059b91906122ff565b50806005600060025481526020019081526020016000206004018190555082600560006002548152602001908152602001600020600501819055506000600560006002548152602001908152602001600020600601819055506201518082610603919061243d565b60056000600254815260200190815260200160002060070181905550600460008281526020019081526020016000206004016002549080600181540180825580915050600190039060005260206000200160009091909190915055505050505050565b600760003373ffffffffffffffffffffffffffffffffffffffff1673ffffffffffffffffffffffffffffffffffffffff16815260200190815260200160002060009054906101000a900460ff166106f2576040517f08c379a00000000000000000000000000000000000000000000000000000000081526004016106e990612501565b60405180910390fd5b60006003600085815260200190815260200160002060040180549050905060005b8181101561079f578360036000878152602001908152602001600020600401828154811061074457610743612521565b5b90600052602060002001540361078c578260036000878152602001908152602001600020600601828154811061077d5761077c612521565b5b90600052602060002001819055505b808061079790612550565b915050610713565b50605a82126107db5760146003600086815260200190815260200160002060030160008282546107cf9190612598565b92505081905550610898565b6050821261081657600a60036000868152602001908152602001600020600301600082825461080a9190612598565b92505081905550610897565b604682126108515760056003600086815260200190815260200160002060030160008282546108459190612598565b92505081905550610896565b6028821215610895576040517f08c379a000000000000000000000000000000000000000000000000000000000815260040161088c90612628565b60405180910390fd5b5b5b5b50505050565b6000600760003373ffffffffffffffffffffffffffffffffffffffff1673ffffffffffffffffffffffffffffffffffffffff16815260200190815260200160002060009054906101000a900460ff161561092d576040517f08c379a000000000000000000000000000000000000000000000000000000000815260040161092490612694565b60405180910390fd5b60006003600086815260200190815260200160002060040180549050905060005b81811015610a29578460036000888152602001908152602001600020600401828154811061097f5761097e612521565b5b906000526020600020015403610a16576003600087815260200190815260200160002060050181815481106109b7576109b6612521565b5b906000526020600020015484136109d357600192505050610a65565b60006003600088815260200190815260200160002060060182815481106109fd576109fc612521565b5b9060005260206000200181905550600092505050610a65565b8080610a2190612550565b91505061094e565b506040517f08c379a0000000000000000000000000000000000000000000000000000000008152600401610a5c90612726565b60405180910390fd5b9392505050565b600080600760003373ffffffffffffffffffffffffffffffffffffffff1673ffffffffffffffffffffffffffffffffffffffff16815260200190815260200160002060009054906101000a900460ff1615610afc576040517f08c379a0000000000000000000000000000000000000000000000000000000008152600401610af390612792565b60405180910390fd5b60005b6000548113610bfd5784604051602001610b1991906127ee565b6040516020818303038152906040528051906020012060036000838152602001908152602001600020600101604051602001610b559190612888565b60405160208183030381529060405280519060200120148015610bd8575083604051602001610b8491906127ee565b6040516020818303038152906040528051906020012060036000838152602001908152602001600020600201604051602001610bc09190612888565b60405160208183030381529060405280519060200120145b15610bea578060019250925050610c26565b8080610bf5906120a1565b915050610aff565b507fffffffffffffffffffffffffffffffffffffffffffffffffffffffffffffffff6000915091505b9250929050565b6000600254905090565b60008060005b6001548113610d3b5784604051602001610c5791906127ee565b6040516020818303038152906040528051906020012060046000838152602001908152602001600020600101604051602001610c939190612888565b60405160208183030381529060405280519060200120148015610d16575083604051602001610cc291906127ee565b6040516020818303038152906040528051906020012060046000838152602001908152602001600020600201604051602001610cfe9190612888565b60405160208183030381529060405280519060200120145b15610d28578060019250925050610d64565b8080610d33906120a1565b915050610c3d565b507fffffffffffffffffffffffffffffffffffffffffffffffffffffffffffffffff6000915091505b9250929050565b610d7361174e565b600560008381526020019081526020016000206040518061010001604052908160008201548152602001600182018054610dac90612118565b80601f0160208091040260200160405190810160405280929190818152602001828054610dd890612118565b8015610e255780601f10610dfa57610100808354040283529160200191610e25565b820191906000526020600020905b815481529060010190602001808311610e0857829003601f168201915b50505050508152602001600282018054610e3e90612118565b80601f0160208091040260200160405190810160405280929190818152602001828054610e6a90612118565b8015610eb75780601f10610e8c57610100808354040283529160200191610eb7565b820191906000526020600020905b815481529060010190602001808311610e9a57829003601f168201915b50505050508152602001600382018054610ed090612118565b80601f0160208091040260200160405190810160405280929190818152602001828054610efc90612118565b8015610f495780601f10610f1e57610100808354040283529160200191610f49565b820191906000526020600020905b815481529060010190602001808311610f2c57829003601f168201915b505050505081526020016004820154815260200160058201548152602001600682015481526020016007820154815250509050919050565b610f89611793565b600360008381526020019081526020016000206040518060e001604052908160008201548152602001600182018054610fc190612118565b80601f0160208091040260200160405190810160405280929190818152602001828054610fed90612118565b801561103a5780601f1061100f5761010080835404028352916020019161103a565b820191906000526020600020905b81548152906001019060200180831161101d57829003601f168201915b5050505050815260200160028201805461105390612118565b80601f016020809104026020016040519081016040528092919081815260200182805461107f90612118565b80156110cc5780601f106110a1576101008083540402835291602001916110cc565b820191906000526020600020905b8154815290600101906020018083116110af57829003601f168201915b50505050508152602001600382015481526020016004820180548060200260200160405190810160405280929190818152602001828054801561112e57602002820191906000526020600020905b81548152602001906001019080831161111a575b505050505081526020016005820180548060200260200160405190810160405280929190818152602001828054801561118657602002820191906000526020600020905b815481526020019060010190808311611172575b50505050508152602001600682018054806020026020016040519081016040528092919081815260200182805480156111de57602002820191906000526020600020905b8154815260200190600101908083116111ca575b5050505050815250509050919050565b6111f66117d0565b600460008381526020019081526020016000206040518060a00160405290816000820154815260200160018201805461122e90612118565b80601f016020809104026020016040519081016040528092919081815260200182805461125a90612118565b80156112a75780601f1061127c576101008083540402835291602001916112a7565b820191906000526020600020905b81548152906001019060200180831161128a57829003601f168201915b505050505081526020016002820180546112c090612118565b80601f01602080910402602001604051908101604052809291908181526020018280546112ec90612118565b80156113395780601f1061130e57610100808354040283529160200191611339565b820191906000526020600020905b81548152906001019060200180831161131c57829003601f168201915b50505050508152602001600382015481526020016004820180548060200260200160405190810160405280929190818152602001828054801561139b57602002820191906000526020600020905b815481526020019060010190808311611387575b5050505050815250509050919050565b600660003373ffffffffffffffffffffffffffffffffffffffff1673ffffffffffffffffffffffffffffffffffffffff16815260200190815260200160002060009054906101000a900460ff1615611438576040517f08c379a000000000000000000000000000000000000000000000000000000000815260040161142f90612052565b60405180910390fd5b60008081548092919061144a906120a1565b9190505550600054600360008054815260200190815260200160002060000181905550816003600080548152602001908152602001600020600101908161149191906122ff565b5080600360008054815260200190815260200160002060020190816114b691906122ff565b5060006003600080548152602001908152602001600020600301819055506001600660003373ffffffffffffffffffffffffffffffffffffffff1673ffffffffffffffffffffffffffffffffffffffff16815260200190815260200160002060006101000a81548160ff0219169083151502179055505050565b600760003373ffffffffffffffffffffffffffffffffffffffff1673ffffffffffffffffffffffffffffffffffffffff16815260200190815260200160002060009054906101000a900460ff16156115bd576040517f08c379a00000000000000000000000000000000000000000000000000000000081526004016115b4906128eb565b60405180910390fd5b6005600084815260200190815260200160002060060160008154809291906115e4906120a1565b9190505550600360008581526020019081526020016000206004018390806001815401808255809150506001900390600052602060002001600090919091909150556003600085815260200190815260200160002060050182600560008681526020019081526020016000206007015461165e9190612598565b908060018154018082558091505060019003906000526020600020016000909190919091505560056000848152602001908152602001600020600501546003600086815260200190815260200160002060030160008282546116c0919061290b565b9250508190555060056000848152602001908152602001600020600501546004600083815260200190815260200160002060030160008282546117039190612598565b92505081905550600360008581526020019081526020016000206006016000908060018154018082558091505060019003906000526020600020016000909190919091505550505050565b60405180610100016040528060008152602001606081526020016060815260200160608152602001600081526020016000815260200160008152602001600081525090565b6040518060e00160405280600081526020016060815260200160608152602001600081526020016060815260200160608152602001606081525090565b6040518060a0016040528060008152602001606081526020016060815260200160008152602001606081525090565b6000604051905090565b600080fd5b600080fd5b600080fd5b600080fd5b6000601f19601f8301169050919050565b7f4e487b7100000000000000000000000000000000000000000000000000000000600052604160045260246000fd5b6118668261181d565b810181811067ffffffffffffffff821117156118855761188461182e565b5b80604052505050565b60006118986117ff565b90506118a4828261185d565b919050565b600067ffffffffffffffff8211156118c4576118c361182e565b5b6118cd8261181d565b9050602081019050919050565b82818337600083830152505050565b60006118fc6118f7846118a9565b61188e565b90508281526020810184848401111561191857611917611818565b5b6119238482856118da565b509392505050565b600082601f8301126119405761193f611813565b5b81356119508482602086016118e9565b91505092915050565b600080604083850312156119705761196f611809565b5b600083013567ffffffffffffffff81111561198e5761198d61180e565b5b61199a8582860161192b565b925050602083013567ffffffffffffffff8111156119bb576119ba61180e565b5b6119c78582860161192b565b9150509250929050565b6000819050919050565b6119e4816119d1565b81146119ef57600080fd5b50565b600081359050611a01816119db565b92915050565b60008060008060008060c08789031215611a2457611a23611809565b5b600087013567ffffffffffffffff811115611a4257611a4161180e565b5b611a4e89828a0161192b565b965050602087013567ffffffffffffffff811115611a6f57611a6e61180e565b5b611a7b89828a0161192b565b955050604087013567ffffffffffffffff811115611a9c57611a9b61180e565b5b611aa889828a0161192b565b9450506060611ab989828a016119f2565b9350506080611aca89828a016119f2565b92505060a0611adb89828a016119f2565b9150509295509295509295565b600080600060608486031215611b0157611b00611809565b5b6000611b0f868287016119f2565b9350506020611b20868287016119f2565b9250506040611b31868287016119f2565b9150509250925092565b60008115159050919050565b611b5081611b3b565b82525050565b6000602082019050611b6b6000830184611b47565b92915050565b611b7a816119d1565b82525050565b6000604082019050611b956000830185611b71565b611ba26020830184611b47565b9392505050565b6000602082019050611bbe6000830184611b71565b92915050565b600060208284031215611bda57611bd9611809565b5b6000611be8848285016119f2565b91505092915050565b611bfa816119d1565b82525050565b600081519050919050565b600082825260208201905092915050565b60005b83811015611c3a578082015181840152602081019050611c1f565b60008484015250505050565b6000611c5182611c00565b611c5b8185611c0b565b9350611c6b818560208601611c1c565b611c748161181d565b840191505092915050565b600061010083016000830151611c986000860182611bf1565b5060208301518482036020860152611cb08282611c46565b91505060408301518482036040860152611cca8282611c46565b91505060608301518482036060860152611ce48282611c46565b9150506080830151611cf96080860182611bf1565b5060a0830151611d0c60a0860182611bf1565b5060c0830151611d1f60c0860182611bf1565b5060e0830151611d3260e0860182611bf1565b508091505092915050565b60006020820190508181036000830152611d578184611c7f565b905092915050565b600081519050919050565b600082825260208201905092915050565b6000819050602082019050919050565b6000611d978383611bf1565b60208301905092915050565b6000602082019050919050565b6000611dbb82611d5f565b611dc58185611d6a565b9350611dd083611d7b565b8060005b83811015611e01578151611de88882611d8b565b9750611df383611da3565b925050600181019050611dd4565b5085935050505092915050565b600060e083016000830151611e266000860182611bf1565b5060208301518482036020860152611e3e8282611c46565b91505060408301518482036040860152611e588282611c46565b9150506060830151611e6d6060860182611bf1565b5060808301518482036080860152611e858282611db0565b91505060a083015184820360a0860152611e9f8282611db0565b91505060c083015184820360c0860152611eb98282611db0565b9150508091505092915050565b60006020820190508181036000830152611ee08184611e0e565b905092915050565b600060a083016000830151611f006000860182611bf1565b5060208301518482036020860152611f188282611c46565b91505060408301518482036040860152611f328282611c46565b9150506060830151611f476060860182611bf1565b5060808301518482036080860152611f5f8282611db0565b9150508091505092915050565b60006020820190508181036000830152611f868184611ee8565b905092915050565b60008060008060808587031215611fa857611fa7611809565b5b6000611fb6878288016119f2565b9450506020611fc7878288016119f2565b9350506040611fd8878288016119f2565b9250506060611fe9878288016119f2565b91505092959194509250565b600082825260208201905092915050565b7f4164647265737320616c726561647920686173206163636f756e740000000000600082015250565b600061203c601b83611ff5565b915061204782612006565b602082019050919050565b6000602082019050818103600083015261206b8161202f565b9050919050565b7f4e487b7100000000000000000000000000000000000000000000000000000000600052601160045260246000fd5b60006120ac826119d1565b91507f7fffffffffffffffffffffffffffffffffffffffffffffffffffffffffffffff82036120de576120dd612072565b5b600182019050919050565b7f4e487b7100000000000000000000000000000000000000000000000000000000600052602260045260246000fd5b6000600282049050600182168061213057607f821691505b602082108103612143576121426120e9565b5b50919050565b60008190508160005260206000209050919050565b60006020601f8301049050919050565b600082821b905092915050565b6000600883026121ab7fffffffffffffffffffffffffffffffffffffffffffffffffffffffffffffffff8261216e565b6121b5868361216e565b95508019841693508086168417925050509392505050565b6000819050919050565b6000819050919050565b60006121fc6121f76121f2846121cd565b6121d7565b6121cd565b9050919050565b6000819050919050565b612216836121e1565b61222a61222282612203565b84845461217b565b825550505050565b600090565b61223f612232565b61224a81848461220d565b505050565b5b8181101561226e57612263600082612237565b600181019050612250565b5050565b601f8211156122b35761228481612149565b61228d8461215e565b8101602085101561229c578190505b6122b06122a88561215e565b83018261224f565b50505b505050565b600082821c905092915050565b60006122d6600019846008026122b8565b1980831691505092915050565b60006122ef83836122c5565b9150826002028217905092915050565b61230882611c00565b67ffffffffffffffff8111156123215761232061182e565b5b61232b8254612118565b612336828285612272565b600060209050601f8311600181146123695760008415612357578287015190505b61236185826122e3565b8655506123c9565b601f19841661237786612149565b60005b8281101561239f5784890151825560018201915060208501945060208101905061237a565b868310156123bc57848901516123b8601f8916826122c5565b8355505b6001600288020188555050505b505050505050565b7f4e6f7420617574686f72697a656420746f2061646420636f7572736500000000600082015250565b6000612407601c83611ff5565b9150612412826123d1565b602082019050919050565b60006020820190508181036000830152612436816123fa565b9050919050565b6000612448826119d1565b9150612453836119d1565b9250828202612461816119d1565b91507f8000000000000000000000000000000000000000000000000000000000000000841460008412161561249957612498612072565b5b82820584148315176124ae576124ad612072565b5b5092915050565b7f4e6f7420617574686f72697a656420746f2072657669657720636f7572736500600082015250565b60006124eb601f83611ff5565b91506124f6826124b5565b602082019050919050565b6000602082019050818103600083015261251a816124de565b9050919050565b7f4e487b7100000000000000000000000000000000000000000000000000000000600052603260045260246000fd5b600061255b826121cd565b91507fffffffffffffffffffffffffffffffffffffffffffffffffffffffffffffffff820361258d5761258c612072565b5b600182019050919050565b60006125a3826119d1565b91506125ae836119d1565b9250828201905082811215600083121683821260008412151617156125d6576125d5612072565b5b92915050565b7f536f7272792c20796f752068617665206661696c65642e000000000000000000600082015250565b6000612612601783611ff5565b915061261d826125dc565b602082019050919050565b6000602082019050818103600083015261264181612605565b9050919050565b7f4e6f7420617574686f72697a656420746f207375626d697420636f7572736500600082015250565b600061267e601f83611ff5565b915061268982612648565b602082019050919050565b600060208201905081810360008301526126ad81612671565b9050919050565b7f436f75727365204944206e6f7420666f756e6420666f7220746865206769766560008201527f6e2073747564656e740000000000000000000000000000000000000000000000602082015250565b6000612710602983611ff5565b915061271b826126b4565b604082019050919050565b6000602082019050818103600083015261273f81612703565b9050919050565b7f43616e6e6f74206c6f67696e2061732053747564656e74000000000000000000600082015250565b600061277c601783611ff5565b915061278782612746565b602082019050919050565b600060208201905081810360008301526127ab8161276f565b9050919050565b600081905092915050565b60006127c882611c00565b6127d281856127b2565b93506127e2818560208601611c1c565b80840191505092915050565b60006127fa82846127bd565b915081905092915050565b6000815461281281612118565b61281c81866127b2565b94506001821660008114612837576001811461284c5761287f565b60ff198316865281151582028601935061287f565b61285585612149565b60005b8381101561287757815481890152600182019150602081019050612858565b838801955050505b50505092915050565b60006128948284612805565b915081905092915050565b7f4e6f7420617574686f72697a656420746f2062757920636f7572736500000000600082015250565b60006128d5601c83611ff5565b91506128e08261289f565b602082019050919050565b60006020820190508181036000830152612904816128c8565b9050919050565b6000612916826119d1565b9150612921836119d1565b925082820390508181126000841216828213600085121516171561294857612947612072565b5b9291505056fea2646970667358221220ebaeb647f53db99be466c8da44a98ac85ec8c3e7c7655feb697f6fa182541f7464736f6c63430008130033",
  "immutableReferences": {},
  "source": "// SPDX-License-Identifier: MIT \npragma solidity ^0.8.19;\n\npragma experimental ABIEncoderV2;\ncontract Edublocks {\n    struct Student {\n        int256 id;\n        string user_name;\n        string password;\n        int256 balance;\n        int256[] courses_id;\n        int256[] courses_deadline;\n        int256[] marks;\n    }\n    struct Educator {\n        int256 id;\n        string user_name;\n        string password;\n        int256 balance;\n        int256[] courses_id;\n    }\n    struct Course {\n        int256 id;\n        string name;\n        string description;\n        string author_name;\n        int256 author_id;\n        int256 price;\n        int256 users;\n        int256 deadline;\n    }\n    int256 studentCount;\n    int256 educatorCount;\n    int256 courseCount;\n    mapping(int256 => Student) students;\n    mapping(int256 => Educator) educators;\n    mapping(int256 => Course) courses;\n    mapping(address => bool) hasAccount;\n    mapping(address => bool) isEducator;\n    function addStudent(string memory n, string memory pass) public {\n        require(!hasAccount[msg.sender], \"Address already has account\");\n        studentCount++;\n        students[studentCount].id = studentCount;\n        students[studentCount].user_name = n;\n        students[studentCount].password = pass;\n        students[studentCount].balance = 0;\n        hasAccount[msg.sender] = true;\n    }\n    function addEducator(string memory n, string memory pass) public {\n        require(!hasAccount[msg.sender], \"Address already has account\");\n        educatorCount++;\n        educators[educatorCount].id = educatorCount;\n        educators[educatorCount].user_name = n;\n        educators[educatorCount].password = pass;\n        educators[educatorCount].balance = 0;\n        hasAccount[msg.sender] = true;\n        isEducator[msg.sender] = true; // set the account as an Educator\n    }\n\n    function studentLogin(string memory n, string memory p) public view returns (int256, bool) {\n  require(!isEducator[msg.sender], \"Cannot login as Student\");\n  for (int256 i = 0; i <= studentCount; i++) {\n    if (keccak256(abi.encodePacked(students[i].user_name)) == keccak256(abi.encodePacked(n)) &&\n        keccak256(abi.encodePacked(students[i].password)) == keccak256(abi.encodePacked(p))) {\n      return (i, true);\n    }\n  }\n  return (-1, false);\n}\n\nfunction educatorLogin(string memory n, string memory p) public view returns (int256, bool) {\n  //bool found = false;\n  for (int256 i = 0; i <= educatorCount; i++) {\n    if (keccak256(abi.encodePacked(educators[i].user_name)) == keccak256(abi.encodePacked(n)) &&\n        keccak256(abi.encodePacked(educators[i].password)) == keccak256(abi.encodePacked(p))) {\n      return (i, true);\n    }\n  }\n  return (-1, false);\n}\n\n    function addCourse(\n        string memory n,\n        string memory desc,\n        string memory auth,\n        int256 p,\n        int256 d,\n        int256 e_id\n    ) public {\n        require(isEducator[msg.sender], \"Not authorized to add course\"); //check if it's an Educator account\n        courseCount++;\n        courses[courseCount].id = courseCount;\n        courses[courseCount].name = n;\n        courses[courseCount].description = desc;\n        courses[courseCount].author_name = auth;\n        courses[courseCount].author_id = e_id;\n        courses[courseCount].price = p;\n        courses[courseCount].users = 0;\n        courses[courseCount].deadline = d * 1 days;\n        //adding course ID to educator struct\n        educators[e_id].courses_id.push(courseCount);\n    }\n    function buyCourse(\n        int256 s_id,\n        int256 c_id,\n        int256 _time,\n        int256 e_id\n    ) public {\n        require(!isEducator[msg.sender], \"Not authorized to buy course\"); //check if it's a Student account\n        courses[c_id].users++;\n        students[s_id].courses_id.push(c_id);\n        students[s_id].courses_deadline.push(courses[c_id].deadline + _time);\n        students[s_id].balance -= courses[c_id].price; //deducting student balance\n        educators[e_id].balance += courses[c_id].price; //payment for educator\n        students[s_id].marks.push(0); //initializing marks for course\n    }\n    function reviewAssignment(\n        int256 s_id,\n        int256 c_id,\n        int256 _m\n    ) public {\n        require(isEducator[msg.sender], \"Not authorized to review course\"); //only educator can review assignments\n        uint256 totalCourses = students[s_id].courses_id.length;\n        for (uint256 i = 0; i < totalCourses; i++) {\n            if (students[s_id].courses_id[i] == c_id) {\n                students[s_id].marks[i] = _m;\n            }\n        }\n        if (_m >= 90) {\n            students[s_id].balance += 20;\n        } else if (_m >= 80) {\n             students[s_id].balance += 10;\n        } else if (_m >= 70) {\n            students[s_id].balance += 5;\n        } else if (_m < 40) {\n            revert(\"Sorry, you have failed.\");\n        }\n    }\n\n\n    function submitAssignment(\n        int256 s_id,\n        int256 c_id,\n        int256 _time\n    ) public returns (bool) {\n        require(!isEducator[msg.sender], \"Not authorized to submit course\"); //check if it's a Student account\n        uint256 totalCourses = students[s_id].courses_id.length;\n        for (uint256 i = 0; i < totalCourses; i++) {\n            if (students[s_id].courses_id[i] == c_id) {\n                if (_time <= students[s_id].courses_deadline[i]) {\n                    return (true);\n                }\n                //if deadline passed,set marks=0\n                else {\n                    students[s_id].marks[i] = 0;\n                    return (false);\n                }\n            }\n        }\n        revert(\"Course ID not found for the given student\");\n    }\n\n\n    function getCourse(int256 _id) public view returns (Course memory) {\n        return (courses[_id]);\n    }\n    function getStudent(int256 _id) public view returns (Student memory) {\n        return (students[_id]);\n    }\n    function getEducator(int256 _id) public view returns (Educator memory) {\n        return (educators[_id]);\n    }\n    function getCourseCount() public view returns (int256) {\n        return (courseCount);\n    }\n}",
  "sourcePath": "C:\\Users\\Vaishnavi\\major-project\\contracts\\Edublocks.sol",
  "compiler": {
    "name": "solc",
    "version": "0.8.19+commit.7dd6d404.Emscripten.clang"
  },
  "schemaVersion": "3.4.16",
  "updatedAt": "2024-04-15T10:40:05.783Z",
  "devdoc": {
    "kind": "dev",
    "methods": {},
    "version": 1
  },
  "userdoc": {
    "kind": "user",
    "methods": {},
    "version": 1
  },
  "db": {
    "callBytecode": {
      "id": "0x9be00daa974aa23ceb7c8ca1710250477e4b87790f8c0859dfab5838caafaab7"
    },
    "createBytecode": {
      "id": "0x8296ce6ff751fdae609f3beb76e9df0345d97e7c2ca2d822506f7ffba7dacb13"
    },
    "contract": {
      "id": "0x95b1c6146f171f85ca39797682f2d4958645a571a0d405bfb17fc217fd475a64"
    }
  }
}